{
  "transactions": [
    {
      "hash": "0x7d9dda88745e14addb01669540dface959684467e31cbc65f360b136aebd11bd",
      "transactionType": "CALL",
      "contractName": null,
      "contractAddress": "0x8066fe51d2865a2eb6ca6303130e87c8b8937836",
      "function": "execute(address,uint256,bytes)",
      "arguments": [
        "0x779877A7B0D9E8603169DdbD7836e478b4624789",
        "0",
        "0x095ea7b30000000000000000000000003ad7fea4f215de8875f45931e2e3880d45e22eba0000000000000000000000000000000000000000000000000de0b6b3a7640000"
      ],
      "transaction": {
        "from": "0x0309004c4fb9943797f5c530abd8cdde564a9fd4",
        "to": "0x8066fe51d2865a2eb6ca6303130e87c8b8937836",
        "gas": "0x11d18",
        "value": "0x0",
        "input": "0xb61d27f6000000000000000000000000779877a7b0d9e8603169ddbd7836e478b4624789000000000000000000000000000000000000000000000000000000000000000000000000000000000000000000000000000000000000000000000000000000600000000000000000000000000000000000000000000000000000000000000044095ea7b30000000000000000000000003ad7fea4f215de8875f45931e2e3880d45e22eba0000000000000000000000000000000000000000000000000de0b6b3a764000000000000000000000000000000000000000000000000000000000000",
        "nonce": "0x196",
        "chainId": "0xaa36a7"
      },
      "additionalContracts": [],
      "isFixedGasLimit": false
    }
  ],
  "receipts": [
    {
      "status": "0x1",
      "cumulativeGasUsed": "0x220b798",
      "logs": [
        {
          "address": "0x779877a7b0d9e8603169ddbd7836e478b4624789",
          "topics": [
            "0x8c5be1e5ebec7d5bd14f71427d1e84f3dd0314c0f7b2291e5b200ac8c7c3b925",
            "0x0000000000000000000000008066fe51d2865a2eb6ca6303130e87c8b8937836",
            "0x0000000000000000000000003ad7fea4f215de8875f45931e2e3880d45e22eba"
          ],
          "data": "0x0000000000000000000000000000000000000000000000000de0b6b3a7640000",
          "blockHash": "0x06189e002301794409fa1c70633bbaa66b4851d63c336095d258c26d4e6d8e7b",
          "blockNumber": "0x739577",
          "transactionHash": "0x7d9dda88745e14addb01669540dface959684467e31cbc65f360b136aebd11bd",
          "transactionIndex": "0x118",
          "logIndex": "0x1f4",
          "removed": false
        }
      ],
      "logsBloom": "0x00000004000000000000000000000000000000000000000000000000000000000000000000000000000000000000000000000000000000000000000000200000000000000000000000000000000000000000000000000000000000000000000000000000000000000000000000000000000000000000000100000000000000000000000000000000000000000000800000000000000000008000000000000000020000000000000000000000000000000000000000000000000004000000004000000000000000000000001000000000000000000000000100000000000000000010000000000000002000000000000000000000000000000000000000000000",
      "type": "0x2",
      "transactionHash": "0x7d9dda88745e14addb01669540dface959684467e31cbc65f360b136aebd11bd",
      "transactionIndex": "0x118",
      "blockHash": "0x06189e002301794409fa1c70633bbaa66b4851d63c336095d258c26d4e6d8e7b",
      "blockNumber": "0x739577",
      "gasUsed": "0xce68",
      "effectiveGasPrice": "0x16a1a8c24",
      "from": "0x0309004c4fb9943797f5c530abd8cdde564a9fd4",
      "to": "0x8066fe51d2865a2eb6ca6303130e87c8b8937836",
      "contractAddress": null
    }
  ],
  "libraries": [],
  "pending": [],
  "returns": {},
  "timestamp": 1737897013,
  "chain": 11155111,
  "commit": "69fc15b"
}